:020000040800F2
:10000000381E002045010008BD210008BF2100085E
:10001000C3210008C7210008CB2100080000000010
:10002000000000000000000000000000CF210008D8
:10003000D121000800000000D3210008D5210008CC
:100040005F0100085F0100085F0100085F01000810
:100050005F0100085F0100085F0100085F01000800
:100060005F0100085F0100085F0100085F010008F0
:100070005F0100085F0100085F0100085F010008E0
:100080005F0100080D2300085F0100085F01000800
:100090005F0100085F0100085F0100085F010008C0
:1000A0005F0100085F0100085F0100085F010008B0
:1000B0005F0100085F010008312300085F010008AC
:1000C0005F0100085F0100085F0100085F01000890
:1000D0005F010008D72100083F220008A72200087E
:1000E000A53A00085F0100085F0100085F010008F1
:1000F0005F0100085F0100085F0100085F01000860
:100100005F0100085F0100085F0100085F0100084F
:100110005F0100085F0100085F0100085F0100083F
:100120005F0100085F0100085F0100085F0100082F
:10013000DFF80CD005F0B8FB00480047B9200008F4
:10014000381E00200648804706480047FEE7FEE7C5
:10015000FEE7FEE7FEE7FEE7FEE7FEE7FEE7FEE777
:1001600047020008310100080CB500200190009002
:100170006C48006840F480306A49086000BF6948F4
:10018000006800F4003000900198401C0190009835
:1001900018B90198B0F5A06FF1D16248006800F479
:1001A000003010B10120009001E000200090009884
:1001B000012843D15C48006840F010005A490860AB
:1001C0000846006820F0030008600846006840F018
:1001D0000200086053484068524948600846406839
:1001E00048600846406840F48060486008464068BF
:1001F00020F47C1048600846406840F4E8104860ED
:100200000846006840F08070086000BF45480068FC
:1002100000F000700028F9D04248406820F0030048
:10022000404948600846406840F00200486000BF0E
:100230003C48406800F00C000828F9D10CBD10B50E
:10024000FFF792FF10BD10B53648006840F001007E
:1002500034490860084640683449084031494860DC
:1002600008460068324908402E4908600846006880
:1002700020F4802008600846406820F4FE004860B2
:100280004FF41F008860FFF7DAFF4FF00060294944
:10029000086010BD10B5002100200022214B5B68D2
:1002A00003F00C0121B1042906D0082928D107E068
:1002B000214B224C236027E01F4B204C236023E07E
:1002C000184B5B6803F47010164B5B6803F48032C4
:1002D000022303EB904022B9194B4343174C236090
:1002E0000DE0104B5B6803F4003323B1144B434320
:1002F000124C236003E0104B4343104C236003E097
:100300000D4B0E4C236000BF00BF064B5B68C3F370
:1003100003130C4CE15C094B1B68CB40074C23607A
:1003200010BD000000100240002002400000FFF855
:10033000FFFFF6FE08ED00E000127A00000000204A
:1003400000093D000400002031490143314A116099
:10035000704770B5002100230F22C47804B32D4CE0
:10036000246804F4E064C4F5E064210AC1F10403E4
:10037000CA40447804FA03F1847814402143090107
:10038000254C0678A155047804F01F050124AC40E3
:1003900005786D11AD0005F1E025C5F8004109E0D3
:1003A000047804F01F050124AC401C4D067876113A
:1003B00045F8264070BD1A4A0A400243154B1B1FE0
:1003C0001A60704739B1134A121D12680243114B6B
:1003D0001B1D1A6006E00F4A121D126882430D4B66
:1003E0001B1D1A607047042808D14FF0E0210969ED
:1003F00041F004014FF0E022116107E04FF0E021ED
:10040000096921F004014FF0E022116170470000FA
:100410000000FA050CED00E000E400E080E100E0FF
:1004200080FFFF1F01684FF6FE721140016000213E
:10043000016041608160C1608D49884208D18C496A
:100440000839496841F00F01894A083A51608AE049
:1004500087491431884208D185490839496841F0F3
:10046000F001834A083A51607DE081492831884291
:1004700008D17F490839496841F470617C4A083ADB
:10048000516070E07A493C31884208D17849083996
:10049000496841F47041764A083A516063E0744912
:1004A0005031884208D172490839496841F47021B5
:1004B0006F4A083A516056E06D496431884208D16C
:1004C0006B490839496841F47001694A083A51603A
:1004D00049E067497831884208D165490839496857
:1004E00041F07061624A083A51603CE061498842DB
:1004F00006D1011F096841F00F01021F116032E0AF
:100500005C491431884208D15A49091F096841F0F1
:10051000F001584A121F116025E0564928318842DF
:1005200008D15449091F096841F47061514A121FEA
:10053000116018E04F493C31884208D14D49091FEC
:10054000096841F470414B4A121F11600BE04949A0
:100550005031884207D14749091F096841F4702189
:10056000444A121F1160704710B50022026847F616
:10057000F0739A430C6A8B6823430C6923434C69DC
:1005800023438C692343CC6923434C6A23438C6AFD
:1005900023431A430260CB6843600B6883604B6857
:1005A000C36010BD0021016041608160C1600161D4
:1005B00041618161C161016241628162704721B123
:1005C000026842F00102026004E002684FF6FE7326
:1005D0001A40026070471AB103680B43036002E0DF
:1005E00003688B4303607047416070470146486869
:1005F00080B2704701460020002201F080531BB1F9
:100600001C4B083B1A6802E0194B083B1A6802EAC7
:1006100001030BB1012000E00020704700F0805181
:1006200019B11449091F086002E0114908394860EE
:10063000704701460020002201F080531BB10D4B92
:10064000083B1A6802E00A4B083B1A6802EA0103F9
:100650000BB1012000E00020704700F0805119B17B
:100660000449091F086002E00149083948607047E1
:100670000800024008040240002044490860091DA7
:100680000860091D0860091D086041483F49143190
:100690000860704700213D498279002A3AD00A4615
:1006A000126803689A430B461A600A1D12680368B1
:1006B0009A430B1D1A60027911440A6803681A43B1
:1006C0000A60324A0832126803689A432F4B083393
:1006D0001A601A1D126803689A432C4B0C331A6077
:1006E0004279102A0ED11A1F126803681A43274B49
:1006F00008331A601A1D126803681A43234B0C331F
:100700001A600DE02149427911440A6803681A43CE
:100710000A6005E0027911440A6803689A430A6096
:1007200070470021016001710C214171002181712C
:1007300070471649103109680143144A103211609C
:10074000704701460020114A143212680A400AB16B
:10075000012000E0002070470C4914310860704708
:10076000014600200022094B1B6803EA0102074BE7
:1007700014331B680B4013B10AB1012000E00020C4
:1007800070470249143108607047000000040140BE
:10079000FFFF0F0010B50446CC48844208D1012168
:1007A000042000F02DFB0021042000F029FB46E08E
:1007B000C748844208D10121082000F021FB002114
:1007C000082000F01DFB3AE0C248844208D1012114
:1007D000102000F015FB0021102000F011FB2EE08E
:1007E000BD48844208D10121202000F009FB0021EE
:1007F000202000F005FB22E0B848844208D1012106
:10080000402000F0FDFA0021402000F0F9FA16E047
:10081000B348844208D10121802000F0F1FA002180
:10082000802000F0EDFA0AE0AE48844207D10121B1
:10083000801500F0E5FA0021A01500F0E1FA10BDE6
:1008400010B50121084600F0DBFA0021012000F07C
:10085000D7FA10BD2DE9F041024600250026002000
:1008600000230024002791F803C00CF00F0591F835
:1008700003C00CF0100CBCF1000F03D091F802C0C3
:100880004CEA050591F800C0BCF1000F31D01468A6
:1008900000202BE04FF0010C0CFA00F3B1F800C07F
:1008A0000CEA03069E4220D183004FF00F0C0CFA95
:1008B00003F7BC4305FA03FC4CEA040491F803C0B7
:1008C000BCF1280F06D14FF0010C0CFA00FCC2F865
:1008D00014C00AE091F803C0BCF1480F05D14FF0F5
:1008E000010C0CFA00FCC2F810C0401C0828D1D33F
:1008F0001460B1F800C0BCF1FF0F34DD5468002073
:100900002EE000F1080C4FF0010808FA0CF3B1F8E2
:1009100000C00CEA03069E4221D183004FF00F0C69
:100920000CFA03F7BC4305FA03FC4CEA040491F803
:1009300003C0BCF1280F05D100F1080C08FA0CF82F
:10094000C2F8148091F803C0BCF1480F07D100F140
:10095000080C4FF0010808FA0CF8C2F81080401C8F
:100960000828CED35460BDE8F0814FF6FF710180B6
:10097000022181700421C1707047024600209368F3
:100980000B400BB1012000E0002070470146886851
:1009900080B2704702460020D3680B400BB10120A3
:1009A00000E0002070470146C86880B270470161CE
:1009B0007047416170470AB1016100E041617047D1
:1009C000C16070474FF480320A4382618161826165
:1009D00082698269704702460020434B18684FF6CF
:1009E0008073184040EA021008433F4B186070477C
:1009F0003E49C8617047F0B50A4600230024002133
:100A0000002500F00046B6F1004F02D1364EF169E4
:100A100001E0354E7168C0F3034583B200F440161F
:100A2000B6F5401F08D121F070612F4E766826F090
:100A300070662D4F7E6012E000F48016B6F5801FC0
:100A400006D1032606FA05F4A14341F0706106E0E1
:100A5000460D360103FA06F6B14341F0706122B14A
:100A6000460D360103FA06F6314300F00046B6F1B2
:100A7000004F02D11C4EF16101E01B4E7160F0BDD0
:100A800030B500228B071C0F0F2303FA04F2164B1C
:100A900008338C1053F824309343134C08348D10D2
:100AA00044F8253023468C1053F824308C07240F4B
:100AB00000FA04F423430C4C08348D1044F825301C
:100AC00030BD0A49DC310860704700000008014071
:100AD000000C0140001001400014014000180140CA
:100AE000001C0140002001400000014000002042A5
:100AF000DF48006840F00100DD49086008464068B2
:100B0000DC490840DA49486008460068DA4908408C
:100B1000D74908600846006820F48020086008462D
:100B2000406820F4FE0048604FF41F008860704762
:100B3000CF49096821F48031CD4A11601146096816
:100B400021F480211160B0F5803F03D0B0F5802FF3
:100B50000ED106E0C649096841F48031C44A1160EB
:100B600007E0C349096841F4A021C14A116000E0CF
:100B700000BF00BF704710B50146002200230020CF
:100B80004A11012A02D1BA4C236806E0022A02D196
:100B9000B74C236A01E0B64C636A01F01F020124DE
:100BA00094401C400CB1012000E0002010BD38B57D
:100BB000002000900024002500BF3120FFF7DBFF5C
:100BC00005460098401C00900098B0F5A06F01D039
:100BD000002DF2D03120FFF7CEFF08B1012400E054
:100BE0000024204638BD01460020A14A106820F0AC
:100BF000F80040EAC10010607047A04908607047E3
:100C0000024600209A4B586820F47C1042EA010307
:100C10001843974B586070479849086670470146DB
:100C20000020934A506820F003000843506070474A
:100C30008F48406800F00C007047014600208C4A45
:100C4000506820F0F00008435060704701460020D3
:100C5000874A506820F4E0600843506070470146BE
:100C60000020834A506820F4605040EAC100506080
:100C7000704729B17E4A527A02437D4B5A7204E092
:100C80007B4A527A82437A4B5A7270477B49D831F9
:100C90000860704701460020754A506820F44040C3
:100CA0000843506070470021714A20321170704A29
:100CB00082F82010012802D004280AD104E0012182
:100CC0006B4A2032117005E00521694A203211700B
:100CD00000E000BF00BF7047694908607047644981
:100CE000096A0143624A11627047654944390860E4
:100CF000704730B500210022002400235C4D6D6850
:100D000005F00C0121B1042905D0082923D105E003
:100D10005C4D056022E05B4D05601FE0544D6D6841
:100D200005F47012524D6D6805F48034022505EB10
:100D300092421CB9544D554305600BE04C4D6D6813
:100D400005F400351DB1504D5543056002E04D4D91
:100D50005543056002E04B4D056000BF00BF444DA8
:100D60006D6805F0F0010909484D6B5C0568DD40D0
:100D700045603F4D6D6805F4E061090A434D6B5CC9
:100D80004568DD4085603A4D6D6805F46051C90ADB
:100D90003E4D6B5C4568DD40C560354D6D6805F4C2
:100DA0004041890B3A4D6B5CC568B5FBF3F50561B5
:100DB00030BD29B12E4A526902432D4B5A6104E0DD
:100DC0002B4A526982432A4B5A61704729B1284AFB
:100DD00092690243264B9A6104E0254A9269824354
:100DE000234B9A61704729B1214AD2690243204BB3
:100DF000DA6104E01E4AD26982431D4BDA61704712
:100E000029B11B4AD2680243194BDA6004E0184A40
:100E1000D2688243164BDA60704729B1144A1269CE
:100E20000243134B1A6104E0114A12698243104BCA
:100E30001A61704712494039086070470F49C86409
:100E400070470B49C87170470948406A40F080708C
:100E500007494862704701460020054A92680A40E7
:100E60000AB1012000E000207047014988727047F4
:100E7000001002400000FFF8FFFFF6FE00004242B3
:100E80008004424200127A0000093D001400002054
:100E90002400002010B50446FE48844208D10121F8
:100EA000C014FFF7ADFF0021E014FFF7A9FFC4E075
:100EB000B4F1804F08D101210846FFF7AEFF0021B1
:100EC0000120FFF7AAFFB8E0F348844208D10121CE
:100ED0000220FFF7A2FF00210220FFF79EFFACE0F7
:100EE000EE48844208D101210420FFF796FF00213B
:100EF0000420FFF792FFA0E0E948844208D10121D5
:100F00000820FFF78AFF00210820FFF786FF94E002
:100F1000E448844208D101211020FFF77EFF002120
:100F20001020FFF77AFF88E0DF48844208D10121D2
:100F30002020FFF772FF00212020FFF76EFF7CE0EA
:100F4000DA48844208D101214014FFF759FF0021FB
:100F50006014FFF755FF70E0D548844209D10121A4
:100F6000C804FFF74DFF00214FF40020FFF748FFB2
:100F700063E0D048844209D101210805FFF740FF12
:100F800000214FF48010FFF73BFF56E0CA4884422F
:100F900009D101214805FFF733FF00214FF400106C
:100FA000FFF72EFF49E0C548844208D101214020C7
:100FB000FFF733FF00214020FFF72FFF3DE0C0483F
:100FC000844208D101218020FFF727FF00218020E3
:100FD000FFF723FF31E0BB48844208D1012180158F
:100FE000FFF71BFF0021A015FFF717FF25E0B6480C
:100FF000844209D101210804FFF702FF00214FF4C8
:101000008030FFF7FDFE18E0B048844209D101218D
:101010004804FFF7F5FE00214FF40030FFF7F0FE23
:101020000BE0AB48844208D101218804FFF7E8FEB9
:1010300000214FF48020FFF7E3FE10BD002202885C
:10104000944B98420ED0994B98420BD0B0F1804F00
:1010500008D0914B984205D0904B984202D0904BCB
:10106000984204D14FF68F731A404B881A438D4B28
:10107000984207D08C4B984204D04FF6FF431A4059
:10108000CB881A4302808B8883850B880385814B2C
:1010900098420BD0854B984208D08B4B984205D094
:1010A0008A4B984202D08A4B984201D10B7A038630
:1010B00001238382704770B5002400220023058C31
:1010C0004FF6FE7635400584028C8388048B4FF6FC
:1010D0008F752C40B51E2C400D882C43751E2A4060
:1010E0000D892A434D882A436A4DA8420BD06F4D83
:1010F000A84208D0744DA84205D0744DA84202D031
:10110000734DA84213D14FF6F7752A404D892A43F3
:101110004FF6FB752A408D882A434FF6FF652B401A
:101120004FF6FF552B408D892B43CD892B43838070
:101130000483CD888586028470BD70B500240022AA
:101140000023058C4FF6EF7635400584028C8388AA
:10115000048B48F6FF752C404FF6FF452C400D8858
:101160004FF6FF7606EA05252C434FF6DF752A4039
:101170000D8906EA05152A434D8806EA05152A4316
:10118000444DA84202D0494DA8421DD14FF67F756B
:101190002A404D894FF6FF7606EA05152A434FF699
:1011A000BF752A408D8806EA05152A434FF6FF359C
:1011B0002B404FF2FF752B408D8906EA85052B43A6
:1011C000CD8906EA85052B4383800483CD88058776
:1011D000028470BD70B5002400220023058C4FF6F8
:1011E000FF6635400584028C8388848B4FF68F75AB
:1011F0002C404FF6FC752C400D882C434FF6FF55C4
:101200002A400D894FF6FF7606EA05252A434D88C8
:1012100006EA05252A431F4DA84202D0234DA842C5
:101220001DD14FF2FF752A404D894FF6FF7606EA31
:1012300005252A434FF6FF352A408D8806EA052505
:101240002A434EF6FF752B404DF6FF752B408D89D6
:1012500006EA05152B43CD8906EA05152B43838045
:101260008483CD888587028470BD70B500220023F9
:101270000024058C4EF6FF7635400584038C848867
:10128000828B48F6FF752A404FF6FF452A400D88AD
:1012900020E00000002C0140000400400008004055
:1012A000000C0040001000400014004000340140D9
:1012B000004C014000500140005401400018004023
:1012C000001C00400020004000400140004401405C
:1012D000004801404FF6FF7606EA05252A434DF601
:1012E000FF752B400D8906EA05352B434D8806EA2C
:1012F00005352B43FA4DA84202D0FA4DA84208D139
:101300004BF6FF752C408D894FF6FF7606EA851562
:101310002C4384808283CD88A0F84050038470BD24
:10132000828B4FF2FF331A408283828B4FF6FF731A
:1013300003EA01231A4382837047F0B50C46154631
:10134000002200210026078C4EF6FF7C07EA0C07DE
:101350000784828B018C4FF6FF7707EA043640F64C
:10136000FF473A404FF6FF7707EA05273A434FF623
:10137000FF7707EA03373A43D94FB8420ED0D94F27
:10138000B8420BD0B0F1804F08D0D74FB84205D04B
:10139000D64FB84202D0D64FB84206D14DF6FF77AD
:1013A000394046F48057394305E047F6FF57394046
:1013B00044F48057394382830184F0BD828B4FF619
:1013C000F3731A408283828B0A4382837047F0B59D
:1013D0000C461546002200210026078C4FF6FF6CB4
:1013E00007EA0C070784828B018C4FF6FF7707EA28
:1013F00004264FF60C773A404FF6FF7707EA0317BB
:101400002F433A43B64FB8420ED0B64FB8420BD036
:10141000B0F1804F08D0B44FB84205D0B34FB842B6
:1014200002D0B34FB84206D14FF6FF57394046F4C9
:101430008077394305E04FF2FF57394044F4807715
:10144000394382830184F0BD028B4FF2FF331A408F
:101450000283028B4FF6FF7303EA01231A430283D0
:101460007047F0B50C461546002200210026078C77
:101470004FF6EF7C07EA0C070784028B018C4FF6CE
:10148000FF7707EA041640F6FF473A404FF6FF772A
:1014900007EA03373A434FF6FF7707EA05273A434F
:1014A0008F4FB8420ED08F4FB8420BD0B0F1804F63
:1014B00008D08D4FB84205D08C4FB84202D08C4F27
:1014C000B84206D14FF6DF77394046F0100739436E
:1014D00005E04FF65F77394044F010073943028347
:1014E0000184F0BD028B4FF6F3731A400283028B26
:1014F0000A4302837047F0B50C46154600220021CE
:10150000068C4FF6FE773E400684028B018C4FF628
:101510000C7632407E1C06EA03162E433243704E90
:10152000B0420ED06F4EB0420BD0B0F1804F08D019
:101530006D4EB04205D06D4EB04202D06C4EB042FE
:1015400006D14FF6FD76314044F00106314305E007
:101550004FF6F576314044F00106314302830184B1
:10156000F0BD70B505460C465D4885420ED05D481D
:1015700085420BD0B5F1804F08D05B48854205D03D
:101580005A48854202D05A48854200D100E000BF47
:10159000208850B92389A28861882846FFF7ABFFCD
:1015A000E1882846FFF79EFF25E0208804280AD11D
:1015B0002389A28861882846FFF753FFE1882846DF
:1015C000FFF742FF17E0208808280AD12389A28864
:1015D00061882846FFF7FBFEE1882846FFF7EEFE0C
:1015E00009E02389A28861882846FFF7A6FEE188E2
:1015F0002846FFF795FE70BD2DE9F04105460C46E3
:1016000000260127608808B9022600E00026A0888D
:10161000012801D1022700E001272088A0B92389F1
:10162000A28861882846FFF766FFE1882846FFF711
:1016300059FF23893A4631462846FFF712FFE188D1
:101640002846FFF701FF13E02389A2886188284616
:10165000FFF707FFE1882846FFF7F6FE23893A46A1
:1016600031462846FFF747FFE1882846FFF73AFF53
:10167000BDE8F0810A884B881A438B881A43CB88CF
:101680001A430B891A434B891A438B891A43A0F8D2
:10169000442070474FF6FF71818000210180C18096
:1016A0004180017270470021018041808180C180AA
:1016B000018141818181C181704700210180418088
:1016C000012181800021C1800181704700210180BA
:1016D00041808180C180018141818181704700000A
:1016E000002C01400034014000040040000800408C
:1016F000000C004021B1028842F00102028004E0A7
:1017000002884FF6FE731A400280704731B1B0F87C
:10171000442042F40042A0F8442005E0B0F8442000
:10172000C2F30E02A0F8442070471AB183890B431C
:10173000838102E083898B43838170478182704774
:1017400041EA0203A0F8483070471AB183890B437D
:10175000838102E083898B438381704701894FF63F
:10176000F8721140018170470A46002101894FF645
:101770008F73194011430181704730B504460D46FF
:1017800029462046FFF7F0FF208940F0070020811E
:1017900030BD2DE9F04104460D4616461F46602D2A
:1017A00006D13B46012231462046FFF75AFE05E0AE
:1017B0003B46012231462046FFF79DFE2946204642
:1017C000FFF7D2FF208940F007002081BDE8F081BB
:1017D00030B50C4600210189C9B24FF6FF7505EA04
:1017E0000325154325432943018130BD2DE9F041EF
:1017F00005460E4617469846002443463A4631466B
:101800002846FFF7E5FF2C894FF6F870044044F0B6
:1018100007044FF68F70044044F070042C81BDE83B
:10182000F081F0B504460D4616461F463B4632464B
:1018300029462046FFF7CCFF208940F480402081D4
:10184000F0BD0185828270470A46002101884FF66B
:101850008F731940114301807047F0B50C4615464F
:101860001E460021002200230189028B038C4FF6C3
:10187000F877394021434FF6FC473A4040F20117D0
:101880003A434FF6DD773B404FF6FF7707EA0617FE
:101890002F433B43018102830384F0BD0A460021AC
:1018A000018B4FF68F7319401143018370470A462D
:1018B0000021018B48F6FF7319404FF6FF7303EACE
:1018C00002231943018370470A460021818B4FF69A
:1018D0008F7319401143818370470A460021818B21
:1018E00048F6FF7319404FF6FF7303EA02231943CA
:1018F0008183704721B1028842F08002028004E0B7
:1019000002884FF67F731A400280704721B18288A7
:1019100042F00402828004E082884FF6FB731A4092
:101920008280704721B1828842F00802828004E000
:1019300082884FF6F7731A408280704721B18288FF
:1019400042F00102828004E082884FF6FE731A4062
:10195000828070470A460021018B4FF6F7731940C9
:101960001143018370470A460021018B4FF2FF7338
:1019700019404FF6FF7303EA0223194301837047AE
:101980000A460021818B4FF6F7731940114381837A
:1019900070470A460021818B4FF2FF7319404FF6C2
:1019A000FF7303EA02231943818370470A4600212B
:1019B000018B4FF6FB7319401143018370470A46B0
:1019C0000021018B4FF6FF3319404FF6FF7303EAF6
:1019D00002231943018370470A460021818B4FF689
:1019E000FB7319401143818370470A460021818BA4
:1019F0004FF6FF3319404FF6FF7303EA02231943F2
:101A0000818370470A460021018B4FF67F7319408E
:101A10001143018370470A460021018BC1F30E0177
:101A20004FF6FF7303EA02231943018370470A4606
:101A30000021818B4FF67F731940114381837047DA
:101A40000A460021818BC1F30E014FF6FF7303EAB2
:101A500002231943818370470A460021018C4FF607
:101A6000FD7319401143018470470A460021018C1F
:101A70004FF6F77319401143018470470A4600215D
:101A8000018C4FF6DF7319404FF6FF7303EA021320
:101A90001943018470470A460021018C4FF67F7379
:101AA00019404FF6FF7303EA02131943018470478C
:101AB0000A460021018C4FF6FF5319404FF6FF7381
:101AC00003EA02231943018470470A460021018C6E
:101AD0004FF2FF7319404FF6FF7303EA02231943D5
:101AE000018470470A460021018C4DF6FF731940AE
:101AF0004FF6FF7303EA023319430184704730B590
:101B0000002301248C40A3B2048C9C430484048CE5
:101B100002FA01F5ADB22C43048430BD30B5002388
:101B200004248C40A3B2048C9C430484048C02FAE9
:101B300001F5ADB22C43048430BD70B503460020DE
:101B400000241846183001258D40ACB21D8CA543E9
:101B50001D8409B1082909D100EB6100056825F051
:101B6000700505600568154305600EE00D1FC5F39F
:101B70004E052844056825F4E045056005684FF6E4
:101B8000FF7606EA02263543056070BD21B1028862
:101B900042F00202028004E002884FF6FD731A4010
:101BA0000280704721B1028842F00402028004E002
:101BB00002884FF6FB731A400280704721B1828879
:101BC00042F08002828004E082884FF67F731A40E0
:101BD0008280704702884FF6F7731A4002800288AD
:101BE0000A430280704782884FF68F731A408280C2
:101BF00082880A438280704702894FF6F8731A4040
:101C0000028102890A430281704702894FF67F737D
:101C10001A40028102890A43028170478184704719
:101C2000818570478186704701877047818770473B
:101C3000A0F84010704702884FF6FF431A40028018
:101C400002880A43028070470146888E7047014629
:101C5000088F70470146888F70470146B1F84000F1
:101C600070470146888C70470146088D70470246D0
:101C70000020138A0B400BB1012000E000207047C8
:101C8000CA430282704730B5024600200023002478
:101C9000158A05EA0103958905EA010413B10CB11F
:101CA000012000E0002030BDCA43028270470000DE
:101CB00010B50446FB48844209D101218803FFF78F
:101CC0009FF800214FF48040FFF79AF832E0F64881
:101CD000844209D101214804FFF79FF800214FF405
:101CE0000030FFF79AF825E0F048844209D101213D
:101CF0008804FFF792F800214FF48020FFF78DF859
:101D000018E0EB48844209D10121C804FFF785F8A7
:101D100000214FF40020FFF780F80BE0E5488442F3
:101D200008D101210805FFF778F800214FF4801051
:101D3000FFF773F810BD2DE9F04786B005460E4653
:101D40000024A24600BFA1460027B08900B100BF11
:101D50002F462C8A4CF6FF700440F08804432C82F6
:101D6000AC894EF6F3100440B0883189084371897C
:101D700008430443AC81AC8A4FF6FF400440B0896D
:101D80000443AC8201A8FEF7B4FFC648874202D1E3
:101D9000DDF810A001E0DDF80CA0A88900F40040F7
:101DA00040B10AEBCA0000EB0A1031684900B0FBF1
:101DB000F1F807E00AEBCA0000EB0A10316889006D
:101DC000B0FBF1F86420B8FBF0F0040120096421B5
:101DD00001FB1089A88900F4004040B1322000EBDB
:101DE000C900B0FBF1F000F00700044308E0322026
:101DF00000EB09106421B0FBF1F000F00F00044388
:101E00002C8106B0BDE8F0874FF416510160002127
:101E10008180C18001810C21418100218181704735
:101E200010B502460020108A4FF2FF0318400B88BD
:101E30004C8823438C882343CC8823431843108247
:101E400010BD0021018041808180C180704721B197
:101E5000828942F40052828104E082894DF6FF7348
:101E60001A4082817047F0B5034600240026002501
:101E7000002040F66A17B94200D100BF1846C1F3EE
:101E8000421401F01F06012707FA06F5012C01D1C3
:101E90000C3004E0022C01D1103000E014301AB1F3
:101EA00007682F43076002E00768AF430760F0BD93
:101EB0001AB1838A0B43838202E0838A8B43838235
:101EC0007047028A4FF6F0731A400282028A0A4370
:101ED0000282704782894FF2FF731A4082818289A1
:101EE0000A438281704721B1828942F002028281D5
:101EF00004E082894FF6FD731A4082817047028A9E
:101F00004FF6DF731A400282028A0A430282704748
:101F100021B1028A42F48042028204E0028A4BF636
:101F2000FF731A4002827047C1F308028280704733
:101F300001468888C0F308007047818941F001019B
:101F400081817047028BD2B20283028B42EA012266
:101F500002837047028B02F47F420283028B0A43A2
:101F60000283704721B1828A42F02002828204E01B
:101F7000828A4FF6DF731A408282704721B1828ACB
:101F800042F01002828204E0828A4FF6EF731A4018
:101F90008282704721B1828A42F00802828204E084
:101FA000828A4FF6F7731A408282704721B1828984
:101FB00042F40042828103E08289C2F30E028281F0
:101FC000704721B1828A42F40062828204E0828AF0
:101FD0004FF2FF731A4082827047828A4FF6FB737A
:101FE0001A408282828A0A438282704721B1828AA1
:101FF00042F00202828204E0828A4FF6FD731A40A8
:102000008282704702460020B1F5007F00D100BFF8
:1020100013880B400BB1012000E00020704701F451
:102020000072B2F5007F00D100BFCA430280704742
:1020300070B50246002400230025002040F66A16F1
:10204000B14200D100BFC1F3421501F01F030126C8
:1020500006FA03F3012D02D19689334006E0022DE2
:1020600002D1168A334001E0968A33400C120126D1
:1020700006FA04F41688344013B10CB1012000E0D4
:10208000002070BD10B50022002340F66A14A14262
:1020900000D100BF0A1201249440A3B2DC430480A3
:1020A00010BD0000003801400044004000480040DE
:1020B000004C004000500040482002F05DF902F062
:1020C000B7FA4FF47A7002F073F9002002F093FA35
:1020D00027A203210F2002F075FC00F036FA00F071
:1020E000B4FA01F023FD0F20254908600320486061
:1020F0000A2088601B20C860182008610020486101
:102100002048007808B101F0A3FF02F00CF803F0BA
:102110002BF9002002F06FFA1BA20021032002F02D
:1021200021FC1DA203212B2002F04CFC62B61DE015
:102130004FF400511B48FEF720FC04466CB91A48C6
:10214000007850B9012018490870002002F053FAB5
:1021500016A203211E2002F035FC01F026FD4FF4EB
:1021600000511048FEF709FC13490870E0E7000031
:1021700053595320496E69745F646F6E6521000086
:10218000300D0020F3020020427920476F6C61631C
:1021900065642D424954200057656C636F6D65215D
:1021A00000000000001001400E0300205365652070
:1021B000596F752100000000F2020020704700BF37
:1021C000FEE700BFFEE700BFFEE700BFFEE7704787
:1021D00070477047704710B508215A48FFF712FF43
:1021E000012806D108215748FFF719FF5548FFF786
:1021F0009FFE40F225515348FFF71AFFF0B15148B6
:10220000FFF796FEC4B25048407858B121464F4877
:10221000FFF78AFE00BF80214C48FFF7F3FE00283D
:10222000F9D002E0204600F091FA40F225514548ED
:10223000FFF728FF40214348FFF7F1FE10BD10B51E
:1022400008214248FFF7DEFE012806D108213F4859
:10225000FFF7E5FE3D48FFF76BFE40F225513B4896
:10226000FFF7E6FEF0B13948FFF762FEC4B2364828
:10227000807858B121463548FFF756FE00BF8021CF
:102280003248FFF7BFFE0028F9D004E040F22551A4
:102290002E48FFF7F7FE40212C48FFF7C0FE2046EE
:1022A00000F0A0FA10BD10B508212948FFF7AAFEDA
:1022B000012806D108212648FFF7B1FE2448FFF780
:1022C00037FE40F225512248FFF7B2FEE8B1204820
:1022D000FFF72EFEC4B21C48C07858B121461B48F7
:1022E000FFF722FE00BF80211848FFF78BFE002871
:1022F000F9D001E000F09CFF40F225511448FFF7AF
:10230000C1FE40211248FFF78AFE10BD10B500241F
:102310004FF00070FEF782F900210E48FEF74FF9EA
:1023200014200C49091D086001200B49087010BDDC
:1023300010B501210948FFF7A6FC012801D103F0DF
:102340004AF810BD00380140080300200044004056
:1023500000480040800002400C03002000080040BC
:10236000F0B587B004460F4615461E464FF4A060F0
:10237000FDF7EAFF012C04D101218803FEF726FDB9
:102380000CE0022C04D101214804FEF72CFD05E0ED
:10239000032C03D101218804FEF725FD012C04D173
:1023A00001210420FEF712FD0CE0022C04D10121D2
:1023B0000420FEF70BFD05E0032C03D101210820CA
:1023C000FEF704FD012C17D16002ADF818001820AB
:1023D0008DF81B0003208DF81A0006A9F848FEF7B7
:1023E00039FAA002ADF8180004208DF81B0006A9E8
:1023F000F348FEF72FFA34E0022C17D10420ADF891
:10240000180018208DF81B0003208DF81A0006A96B
:10241000EB48FEF71FFA0820ADF8180004208DF8ED
:102420001B0006A9E648FEF715FA1AE0032C18D19E
:102430004FF48060ADF8180018208DF81B000320C1
:102440008DF81A0006A9DF48FEF704FA4FF4006081
:10245000ADF8180004208DF81B0006A9D948FEF736
:10246000F9F902970020ADF80C00ADF80E00ADF8B8
:102470001000ADF814000C20ADF81200012C0ED1A4
:1024800002A9D148FFF757FC012240F22551CE485E
:10249000FFF7E9FC0121CC48FFF7D9FC20E0022C32
:1024A0000ED102A9C948FFF746FC012240F225518E
:1024B000C648FFF7D8FC0121C448FFF7C8FC0FE06D
:1024C000032C0DD102A9C248FFF735FC012240F2CE
:1024D0002551BF48FFF7C7FC0121BD48FFF7B7FCF6
:1024E0004FF4A060FDF730FF012C0DD125208DF8B1
:1024F00004008DF805508DF8066001208DF8070066
:1025000001A8FDF726FF1EE0022C0DD126208DF834
:1025100004008DF805508DF8066001208DF8070045
:1025200001A8FDF716FF0EE0032C0CD127208DF833
:1025300004008DF805508DF8066001208DF8070025
:1025400001A8FDF706FF07B0F0BD08B50121052081
:10255000FEF73CFC4FF4C050ADF8000010208DF8A1
:10256000030003208DF8020069469548FEF772F9D2
:102570004FF400619248FEF71CFA4FF480519048E6
:10258000FEF715FA08BD00B58BB001210846FEF72D
:1025900010FC8D48001D00908E4801901020029084
:1025A00014200390002004908020059000200690C5
:1025B000079020200890C001099000200A906946E9
:1025C0008548FDF7D1FF01218348FDF7F8FF0BB0E7
:1025D00000BD00B58DB001210846FEF7EAFB7B483F
:1025E000001D01907B48029010200390142004905D
:1025F0000020059080200690002007900890099008
:102600004FF480500A9000200B9001A972483C3092
:10261000FDF7AAFF012170483C30FDF7D0FF0122F1
:1026200002216D483C30FDF7D6FF11208DF83000B7
:1026300000208DF8310001208DF832008DF8330034
:102640000CA8FDF786FE0DB000BD10B501230222D7
:102650004FF4E1311846FFF783FE02231A464FF488
:10266000E1311846FFF77CFE10BD10B50446214647
:102670005548FFF759FC00BF40215348FFF7C2FC03
:102680000028F9D010BD70B505460E46002404E0C0
:10269000285DFFF7EAFF601C84B2B442F8DB70BD2E
:1026A00070B504460D464F20FFF7DFFF5620FFF7B9
:1026B000DCFF4520FFF7D9FF5220FFF7D6FF70BDA2
:1026C00070B58EB000260024AA222146641C01A801
:1026D0004254AF222146641C425400222146641C0D
:1026E00042542146641C42543C48008800B2009089
:1026F0009DF801202146641C01A842549DF8002049
:102700002146641C4254201FC0B28DF807000025EA
:1027100005E001A8405D3044C6B2681CC5B2A542C0
:10272000F7DB2046611CCCB201A90E544FF40061C6
:102730002348FEF73CF94FF480512148FEF739F960
:10274000214601A8FFF79FFF0EB070BD10B50446EB
:1027500023480078844201D1FFF7B2FF10BDF0B5E5
:1027600099B00246144600200023002C00DA5242A1
:1027700000BF0A2592FBF5F605FB16253035EDB2B4
:102780000DF800500A2592FBF5F2401C002AF0DCFF
:10279000002C04DA2D270546401C0DF80570002595
:1027A0000DF80050401E04E01DF80050CD545B1C95
:1027B000401E0028F8DA0025CD5419B0F0BD000005
:1027C00000080140000C0140003801400044004076
:1027D00000480040F402002044000240480D002060
:1027E0000D0300202DE9F04393B0074600200F9021
:1027F0001090119012900B900C900D900E900990EB
:102800000A900790089080468146FE48007810B1F3
:1028100001280ED10EE00D2F03D10120F9490870D7
:1028200007E0F94801780078401CF74A1070F74833
:102830004754F9E30A2F7CD1002604E02020F44914
:102840008855701CC6B27D2EF8DB002605E0EF48E7
:10285000805DEF498855701CC6B27B2EF7DB01F016
:10286000E7FE00207D23EB4AEB490090E84801F0A9
:102870000EF8EA48007842287ED1E8484078492896
:10288000FAD1E64880785428F6D1E448C078303848
:1028900042F210714843E1490979303901EB4102B4
:1028A000C2EBC11100EBC101DC484079303800EBCC
:1028B000C00202EB001001EB8001D848C07930382B
:1028C00000EB800001EB4001D448007A3038084426
:1028D00080B2ADF80800D148C07A3038CF49497A83
:1028E000303901EB810100EB4100C1B28DF80B10D2
:1028F000CA48407B3038C949097B303901EB810136
:1029000000EB4100C1B28DF80C10C448007C303897
:10291000C249C97B303901EB810100EB4100C1B2F2
:102920008DF80D10BD48C07C3038BC49497C303929
:1029300000E0FAE301EB810100EB4100C1B28DF848
:102940000E10B648407D3038B449097D303901EB6E
:10295000810100EB4100C1B28DF81310AF48007E39
:102960003038AE49C97D303901EB810100EB4100BF
:10297000C1B28DF8141000E0FEE3A848C07E3038E4
:10298000A649497E303901EB810100EB4100C1B21B
:102990008DF81510A148407F3038A049097F3039A3
:1029A00001EB810100EB4100C1B28DF816109B488C
:1029B00090F8200030389949C97F303901EB810106
:1029C00000EB4100C0B28DF81A00BDF8080040F2DB
:1029D000E631884209D1012091490870002001F0B8
:1029E0000AFE002001F007FE23E200250EE005EBC1
:1029F00085008C4931F82000BDF80810884203D1C9
:102A00002C460B254FF00108681C85B20A2DEEDB21
:102A1000B8F1000F7ED1002551E005EB850081491A
:102A200031F82000F0BBBDF8080005EB85017D4AB8
:102A300022F821009DF80B1005EB850002EB8000C9
:102A4000C1709DF80C1005EB850002EB8000017150
:102A50009DF80D1005EB850002EB800041719DF89B
:102A60000E1005EB850002EB800081719DF81310BC
:102A700005EB850002EB8000C1729DF8141005EB98
:102A8000850002EB800001739DF8151005EB8500B1
:102A900002EB800041739DF8161005EB850002EBF8
:102AA000800000E009E081739DF81A0005EB8501C4
:102AB00002EB810188742C460B25681C85B20A2D17
:102AC000ABDB04EB8400574901EB8000807C0028DD
:102AD0007DDD5548417804EB8400524A02EB8000CA
:102AE000C07881425EDB5048417804EB840002EB01
:102AF0008000C07A814255DC4B48817804EB840029
:102B000002EB8000007981424CDB4748817804EB7E
:102B1000840000E09BE102EB8000007B814241DC0D
:102B20004148017904EB840002EB80004079814246
:102B30000BDD3D48017904EB840002EB8000407B13
:102B4000814202DA4FF001092CE03748017904EBA9
:102B50008400344A02EB8000407981420CD104EBBE
:102B60008400114601EB800080792F494979884221
:102B700002DC4FF0010915E02B48017904EB8400D9
:102B8000284A02EB8000407B81420BD104EB840099
:102B9000114601EB8000807B23494979884201DBA3
:102BA0004FF00109B9F1000F7DD01D48007860B9E0
:102BB00004EB84001B4901EB8000807C401E04EB89
:102BC0008401184A02EB81018874002000E031E1A1
:102BD00001F011FD002001F00EFD04EB8401114A0B
:102BE00032F8210009A9FFF7BAFD10A2002108461A
:102BF00001F0B8FE09AA00211B2001F0B3FE04EB8E
:102C0000840117E0100300200F030020100E0020A5
:102C10008D0E0020E5050020DC0500208A12002032
:102C20000E030020480D0020130600204964203ABE
:102C300000000000FD4A02EB8101887C07A9FFF734
:102C40008EFDFBA20021432001F08CFE07AA00218B
:102C50005E2001F087FE0FAA2146012001F075FADF
:102C60000020F54908700EE00FA8F3490978405C90
:102C700020B920200FA9F04A12788854EE48007835
:102C8000401CED490870EC4800780F28ECDB002070
:102C90008DF84900E9A20221032001F063FE0FAA8A
:102CA00002211B2000E02EE001F05CFE0BAA214671
:102CB000022001F04AFA0020DF4908700EE00BA85C
:102CC000DD490978405C20B920200BA9DA4A127846
:102CD0008854D9480078401CD7490870D6480078F5
:102CE0000F28ECDB00208DF83900D6A20421032048
:102CF00001F038FE0BAA04211B2001F033FE012055
:102D0000D249087072E2002001F075FC002001F049
:102D100072FC0FAA2146012001F017FA0020C649D3
:102D200008700EE00FA8C4490978405C20B9202043
:102D30000FA9C14A12788854BF480078401CBE4988
:102D40000870BD4800780F28ECDB00208DF84900A2
:102D5000BAA20021032001F005FE0FAA00211B20CA
:102D600001F000FE0BAA2146022001F0EEF900203E
:102D7000B14908700EE00BA8AF490978405C20B952
:102D800020200BA9AC4A12788854AB480078401C2C
:102D9000A9490870A84800780F28ECDB00208DF8BE
:102DA0003900A8A20121032001F0DCFD0BAA0121BA
:102DB0001B2001F0D7FDA6A203210A2001F002FE8C
:102DC00040F2DC5001F0F4FA002004EB8401974A51
:102DD00022F82100002104EB840002EB8000C17086
:102DE00004EB840002EB8000017104EB840002EB31
:102DF0008000417104EB840002EB8000817104EBE0
:102E0000840002EB8000C17204EB840002EB8000BE
:102E1000017304EB840002EB8000417304EB840037
:102E200002EB80008173002004EB840102EB81013E
:102E30008874DBE1002001F0DEFB89A203210A2077
:102E400001F0C0FD40F2DC5001F0B2FACEE1B8F181
:102E5000000F7CD004EB8400744901EB8000807C7F
:102E60000028F6D004EB840001EB8000807C002871
:102E70006EDD7F48417804EB84006C4A02EB8000F1
:102E8000C07881425CDB7A48417804EB840002EB35
:102E90008000C07A814253DC7548817804EB84005D
:102EA00002EB8000007981424ADB7148817804EBB3
:102EB000840002EB8000007B814241DC6C48017998
:102EC00004EB840002EB8000407981420BDD68480E
:102ED000017904EB840002EB8000407B814202DA3E
:102EE0004FF001092CE06248017904EB84004F4A5D
:102EF00002EB8000407981420CD104EB8400114642
:102F000001EB800080795A494979884202DC4FF010
:102F1000010915E05648017904EB8400434A02EBAD
:102F20008000407B81420BD104EB8400114601EB11
:102F30008000807B4E494979884201DB4FF00109CE
:102F4000B9F1000F71D04148007878B901E029E16A
:102F50001AE104EB8400354901EB8000807C401EBF
:102F600004EB8401314A02EB81018874002001F0F6
:102F700042FB002001F03FFB04EB84012B4A32F8B6
:102F8000210009A9FFF7EBFBAFF2603200210846F0
:102F900001F0E8FC09AA00211B2001F0E3FC04EB8E
:102FA0008401224A02EB8101887C07A9FFF7D7FB45
:102FB0001FA20021432001F0D5FC07AA00215E20BA
:102FC00001F0D0FC0FAA2146012001F0BEF800203C
:102FD000194908700EE00FA817490978405C20B91C
:102FE00020210FA8144A1278815413480078401CFD
:102FF00011490870104800780F28ECDB00208DF88C
:1030000049000EA20221032001F0ACFC0FAA02210C
:103010001B2001F0A7FC0BAA2146022001F095F825
:1030200000200549087034E0FEE048E0480D00202B
:103030004E756D3A000000000F0300205374723A81
:1030400000000000456E643A000000000E030020FE
:10305000436172646661696C3A54696D6521000070
:10306000436172646661696C3A4E756D21000000BF
:10307000130600200BA894490978405C20B9202150
:103080000BA8914A127881548F480078401C8E49D1
:1030900008708D4800780F28ECDB00208DF839008F
:1030A000AFF260020421032001F05CFC0BAA0421B2
:1030B0001B2001F057FC01208449087096E0002095
:1030C00001F099FA0FAA2146012001F03EF80020F4
:1030D0007D4908700EE00FA87B490978405C20B953
:1030E00020200FA9784A1278885477480078401C2D
:1030F00075490870744800780F28ECDB00208DF8C3
:103100004900AFF2C8020021032001F02BFC0FAAF6
:1031100000211B2001F026FC0BAA2146022001F011
:1031200014F80020684908700FE077E00BA86649A2
:103130000978405C20B920200BA9634A1278885492
:1031400061480078401C604908705F4800780F288B
:10315000ECDB00208DF83900AFF2181201210320BA
:1031600001F000FC0BAA01211B2001F0FBFBAFF2D8
:10317000201203210A2000E02CE001F023FC40F2A1
:10318000DC5001F015F931E0002001F034FAAFF223
:10319000301203210A2001F015FC40F2DC5001F04E
:1031A00007F923E0B8F1000F20D004EB8400484970
:1031B00001EB8000807CC8B9002001F01CFAAFF25E
:1031C000601203210A2001F0FDFB40F2DC5001F007
:1031D000EFF80BE0002001F00EFA3EA203210A20D6
:1031E00001F0F0FB40F2DC5001F0E2F8002604E0D0
:1031F00020200BA98855701CC6B20E2EF8DB0026C5
:1032000004E0202036498855701CC6B27D2EF8DBBC
:103210000020344908702C49087004E0002031492E
:1032200008702949087000BF00BF13B0BDE8F083E3
:10323000704770B504460D46012C0BD129462A482B
:10324000FEF772FE00BF80212748FEF7DBFE002854
:10325000F9D01AE0022C0BD129462448FEF764FE6F
:1032600000BF80212148FEF7CDFE0028F9D00CE0F8
:10327000032C0AD129461E48FEF756FE00BF8021C6
:103280001B48FEF7BFFE0028F9D070BD70B504469C
:103290000D46E1B21448FEF747FE00BF4021124838
:1032A000FEF7B0FE0028F9D0204670BD10B50446E8
:1032B00000BF20210C48FEF7A5FE0028F9D00A48DF
:1032C000FEF736FE10BD00000F0300200E030020A5
:1032D000480D002057726F6E6720436172642100B1
:1032E000100E002010030020003801400044004070
:1032F00000480040F0B504460D461346002000BFCC
:1033000002E000212154401CDA1703EB5272B0EBAB
:10331000E20FF6DB002016E0C61700EB5676F6103B
:10332000A65D0246C71700EB5777FF10A0EBC70C4E
:103330002F5C07FA0CF73E430146C71700EB57779F
:10334000FF10E655401C9842E6DBF0BD10B5034681
:10335000002000BF02E00C5C1C54401C9042FADBD1
:1033600010BD2DE9F04180460E4617461D4600244B
:1033700000BF05E0385D401E305CFA490855641C0A
:10338000AC42F7DB2A46F7494046FFF7DFFFBDE8CE
:10339000F08130B50346002000BF04E01C5C0D5CEA
:1033A0006C401C54401C9042F8DB30BDF0B5034625
:1033B0000C461546002000BF11E00146C61700EB81
:1033C0005676F610A65D0246C71700EB5777FF103A
:1033D000A0EBC7073E4106F001061E54401CA84260
:1033E000EBDBF0BD2DE9F04106460C460025A84672
:1033F00000271AE06079217800EB41086078C0006E
:10340000A17800EB8100E17800EB410021794718B9
:10341000D54800EB851000EB0810C1190422304696
:10342000FFF7C4FF6D1CA41D361D082DE2DBBDE8AF
:10343000F08130B504460D463023CC4A2146CC48B5
:10344000FFF78FFF30222946C948FFF7A2FFC8497E
:103450002046FFF7C7FF2023C64A21462046FFF734
:1034600080FF30BDF0B504460B461546002000BF76
:103470002CE0C21700EB927292109A5C392A12DD8E
:103480000146C61700EB9676B6109E5D373E0246A3
:10349000C71700EB9777BF10A0EB87073E4106F0F8
:1034A0000106265411E00146C61700EB9676B610C9
:1034B0009E5D303E0246C71700EB9777BF10A0EB2A
:1034C00087073E4106F001062654401CA842D0DB87
:1034D000F0BD70B505460E46002440223146A64890
:1034E000FFF7C0FF4023A54AA3490846FFF739FF6D
:1034F0000F241CE02022A2480168A248FFF726FF03
:1035000004EB4400A04A02EB00119D480068FFF75D
:1035100090FF20229D48016899480068FFF739FF15
:103520002022984999480068FFF710FF641E002C7C
:10353000E0DA4023964A90490846FFF712FF4022FE
:103540008D492846FFF7D6FE70BD70B504460E467D
:1035500015462A4621468F48FFF7F8FE721B61196F
:103560002046FFF7F3FEA119481B2A468949FFF7B9
:10357000EDFE70BD30B50546002440222946864840
:10358000FFF714FF3823854A83490846FFF7E9FE11
:1035900000BF18E08248025D1C2182480068FFF7E6
:1035A000D4FF7F48025D1C217F480068FFF7CDFFF4
:1035B00004EB4401744A02EB011030237B4A764944
:1035C000FFF7CFFE641C102CE4DB30BD30B50346A2
:1035D000002000BF02E000241C54401CD51702EB61
:1035E0009575B0EBA50FF6DB002031E011F8204017
:1035F000012505EB80054D5D04EB4504022505EB37
:1036000080054D5D04EB8504032505EB80054D5DCC
:1036100004EBC5041C541C5CE51704EB15752D1157
:10362000A4EB0515092D09DD1C5CE51704EB1575E8
:103630002D11A4EB051537351D5408E01C5CE5176A
:1036400004EB15752D11A4EB051530351D54401CE8
:10365000D51702EB9575B0EBA50FC7DB30BD70B584
:1036600005460E460024402231465148FFF79EFE93
:103670004023424A4E490846FFF773FE00BF1CE054
:1036800020224C4801684C48FFF760FE04EB4400E0
:103690003D4A02EB001147480068FFF7CAFE2022AE
:1036A0004648016843480068FFF773FE20224249FC
:1036B00042480068FFF74AFE641C102CE0DB402300
:1036C000334A3B490846FFF74CFE4022384928461A
:1036D000FFF77CFF70BD2DE9F04F94B080468A461D
:1036E0009346994600240020109011901290139058
:1036F0000C900D900E900F900A900B9008900990EE
:103700000690079004900590002503900290019088
:10371000009009F00707C9F3CF060FB1701C86B2FD
:10372000002409E01AF804000AA908551BF804004F
:1037300008A90855601CC4B2082CF3DB0AA8FFF7DF
:1037400019FF002575E0002404E0002010A90855A9
:10375000601CC4B2082CF8DB97B3B01EA84246D157
:10376000002438E007130020BC03002014030020CD
:1037700007150020BC050020D71500204859000877
:1037800000060020171600200A0F00200406002063
:103790008859000807140020371500204403002032
:1037A0007C030020F0050020F40500208C0300209D
:1037B00077150020FC050020B7150020F805002033
:1037C00015E00198411C89B2019118F8000006A982
:1037D0000855601CC4B2BC42F3DBFCB204E000201C
:1037E00006A90855601CC4B2082CF8DB0DE00024C3
:1037F00009E00198411C89B2019118F8000006A95E
:103800000855601CC4B2082CF3DB06A910A8FFF70A
:1038100026FF002409E010A8025D0398411C89B22C
:1038200003917D490A54601CC4B2102CF3DB681C60
:1038300085B2B54287DB08A8FFF79CFE002521E092
:10384000002409E00298411C89B202917249085C87
:103850000CA90855601CC4B2102CF3DB0CA904A8F9
:10386000FFF737FE002409E004A8025D0098411C20
:1038700089B2009169490A54601CC4B2082CF3DB78
:10388000681C85B2B542DBDB14B0BDE8F08F2DE9D2
:10389000FF4F92B007469A46002400200E900F90EA
:1038A000109011900A900B900C900D900890099038
:1038B000069007900490059002900390002583469F
:1038C0000190009081460AF00708CAF3CF06B8F1CC
:1038D000000F01D0701C86B2002409E01398005D2F
:1038E00008A908551498005D06A90855601CC4B2C3
:1038F000082CF3DB08A8FFF73DFE002544E0002478
:1039000004E000200EA90855601CC4B2082CF8DBA6
:10391000B8F1000F1AD0B01EA84217D1002408E059
:103920000098411C89B20091385C04A90855601CBC
:10393000C4B24445F4DB08F0FF0404E0002004A90D
:103940000855601CC4B2082CF8DB0CE0002408E029
:103950000098411C89B20091385C04A90855601C8C
:10396000C4B2082CF4DB00240AE017F80B002A4943
:1039700001F80B000BF101001FFA80FB601CC4B2C0
:10398000102CF2DB681C85B2B542B8DB1F9848B337
:1039900006A8FFF7EFFD002521E0002409E00198CB
:1039A000411C89B201911C49085C0AA90855601C98
:1039B000C4B2102CF3DB0AA902A8FFF78AFD002489
:1039C00009E002A8025D4846411C1FFA81F913492B
:1039D0000A54601CC4B2082CF3DB681C85B2B542E3
:1039E000DBDB15E0002511E000240BE00A4810F8AD
:1039F00009000A4901F8090009F101001FFA80F9DC
:103A0000601CC4B2082CF1DB681C85B2B542EBDB4C
:103A100016B0BDE8F08F00000A1200208A120020C4
:103A20001FB501211020FDF7D1F94FF40050ADF87A
:103A3000000048208DF8030003208DF8020069463D
:103A40009348FCF707FF01210846FDF7BFF90D2158
:103A50000220FDF715F84FF40050019000208DF87A
:103A600008000C208DF8090001208DF80A0001A83B
:103A7000FCF710FE0D210220FDF702F84FF4005074
:103A8000019001A8FCF706FE28208DF80C0001200B
:103A90008DF80D008DF80E008DF80F0003A8FCF7CF
:103AA00058FC1FBD10B50A2000F082FC4FF40051F5
:103AB0007748FCF762FF04467648007850B9012049
:103AC00074490870002000F096FD73A203211E20A7
:103AD00000F078FF4FF40050FCF753FE10BD08B51E
:103AE00001210820FDF772F94FF44070ADF8000095
:103AF00010208DF8030003208DF802006946694804
:103B0000FCF7A8FE4FF400716648FCF750FF4FF435
:103B100080716448FCF74BFF4FF47A7000F048FC6A
:103B20004FF480715F48FCF744FF08BD08B50121E0
:103B30000820FDF74BF90320ADF8000010208DF8A8
:103B4000030003208DF8020069465648FCF782FE08
:103B5000FFF766FFFFF7C3FF01215248FCF729FF7B
:103B600002215048FCF725FF08BD70B505460C46FC
:103B7000012D02D0022D16D10AE024B901214948B5
:103B8000FCF717FF03E001214648FCF710FF0AE0AD
:103B900024B902214348FCF70CFF03E0022141480D
:103BA000FCF705FF00BF00BF70BD10B53E480078B0
:103BB00010B1012869D125E036480078012818D1D4
:103BC00001213848FCF7F3FE02213648FCF7EFFEEE
:103BD0004FF480713348FCF7EAFE4FF4007131482E
:103BE000FCF7E7FE01203049087000202F490880CB
:103BF00007E001212B48FCF7DCFE02212948FCF7F5
:103C0000D8FE42E0294801880088401C274A1080DD
:103C100040F6AC50814234DD00201146088000217E
:103C20002348FDF767FD01211E48FCF7C2FE022173
:103C30001C48FCF7BEFE4FF480711A48FCF7B9FE31
:103C40004FF400711748FCF7B2FE41F6583000F00F
:103C5000AFFB00F0EDFC00200E490870124908701F
:103C600000F0C9FC13A203212B2000F0ABFE14A22C
:103C70000021032000F076FE01210D48FDF73AFDFA
:103C800002E0012000F094FB00BF00BF10BD000067
:103C9000001001400E03002053656520596F752107
:103CA00000000000000C0140080600200A06002069
:103CB0000008004057656C636F6D652100000000CF
:103CC000427920476F6C616365642D42495420003E
:103CD00008B501210820FDF779F84FF46040ADF8F0
:103CE000000010208DF8030003208DF802006946C3
:103CF000FE48FCF7AFFD08BD08B54FF46040ADF8D5
:103D0000000010208DF8030003208DF802006946A2
:103D1000F648FCF79FFD08BD08B54FF48040ADF8AC
:103D2000000048208DF803006946F048FCF792FD3A
:103D300008BD01780A2291FBF2F302FB131102780D
:103D40000A2392FBF3F201EB0211017041780A227F
:103D500091FBF2F302FB131142780A2392FBF3F278
:103D600001EB0211417081780A2291FBF2F302FB10
:103D7000131182780A2392FBF3F201EB0211817096
:103D8000C1780A2291FBF2F302FB1311C2780A23D5
:103D900092FBF3F201EB0211C17001790A2291FB4F
:103DA000F2F302FB131102790A2392FBF3F201EB07
:103DB0000211017141790A2291FBF2F302FB131106
:103DC00042790A2392FBF3F201EB021141718179EE
:103DD0000A2291FBF2F302FB131182790A2392FB70
:103DE000F3F201EB02118171704710B50178CB1726
:103DF00001EB13731B11A1EB03130A46CC1701EB64
:103E00001474241104EB840403EB4403037041781D
:103E1000CB1701EB13731B11A1EB03130A46CC174D
:103E200001EB1474241104EB840403EB440343708A
:103E30008178CB1701EB13731B11A1EB03130A4617
:103E4000CC1701EB1474241104EB840403EB44033A
:103E50008370C178CB1701EB13731B11A1EB031314
:103E60000A46CC1701EB1474241104EB840403EB11
:103E70004403C3700179CB1701EB13731B11A1EB42
:103E800003130A46CC1701EB1474241104EB8404C9
:103E900003EB440303714179CB1701EB13731B113F
:103EA000A1EB03130A46CC1701EB1474241104EBA5
:103EB000840403EB440343718179CB1701EB137343
:103EC0001B11A1EB03130A46CC1701EB1474241148
:103ED00004EB840403EB4403837110BD70B5044606
:103EE0000E46FFF709FF4FF400518048FCF75FFDD5
:103EF00004F0FE04002520E004F0010028B14FF496
:103F000080417A48FCF753FD04E04FF48041774844
:103F1000FCF74FFD052000F067FA4FF400417348AD
:103F2000FCF745FD4FF400417048FCF742FD0520C9
:103F300000F05AFA6410681CC5B2082DDCDB0025BD
:103F400020E006F0010028B14FF480416748FCF7FB
:103F50002EFD04E04FF480416448FCF72AFD052063
:103F600000F042FA4FF400416048FCF720FD4FF4A6
:103F700000415E48FCF71DFD052000F035FA761083
:103F8000681CC5B2082DDCDB4FF400515748FCF724
:103F900010FD70BD70B50446FFF7AEFE4FF4005142
:103FA0005248FCF704FD44F00104002620E004F030
:103FB000010028B14FF480414C48FCF7F8FC04E0C4
:103FC0004FF480414948FCF7F4FC052000F00CFA5E
:103FD0004FF400414548FCF7EAFC4FF400414348E8
:103FE000FCF7E7FC052000F0FFF96410701CC6B276
:103FF000082EDCDBFFF790FE082000F0F5F9002624
:104000001DE06D104FF480413848FCF7B6FC10B14C
:1040100045F0800501E005F07F05052000F0E4F99A
:104020004FF400413148FCF7C2FC4FF400412F48E7
:10403000FCF7BFFC052000F0D7F9701CC6B2082EB3
:10404000DFDB4FF400512948FCF7B3FC284670BD74
:1040500010B527480078274908702548007948702E
:104060002348007A88702248007BC8702048007C72
:1040700008711F48007D4871002088710846FFF7CD
:1040800058FE00218E20FFF729FF80210846FFF708
:1040900025FF184841788820FFF720FF15488178D0
:1040A0008620FFF71BFF1348C1788A20FFF716FF11
:1040B000104881798020FFF711FF80218E20FFF7C3
:1040C0000DFF10BD10B58C20FFF764FF0A49087082
:1040D0008820FFF75FFF084948708620FFF75AFFE6
:1040E000054988708420FFF755FF07E0000C014068
:1040F000300D00200C060020130600209B4908719B
:104100008220FFF747FF994948718020FFF742FF5F
:10411000964988718A20FFF73DFF9449C870084688
:10412000FFF763FE10BD10B5FFF7D2FD4FF400514D
:104130008F48FCF73EFC4FF400418D48FCF739FCFA
:1041400000218020FFF7CAFE10BDF8B507460E46D5
:10415000144627B1012F5AD0022F57D1ADE0834921
:1041600048786946FEF7FBFA002505E01DF80500D2
:1041700004F8010B681CC5B2022DF7DB2F2004F8F0
:10418000010B7A4988786946FEF7E9FA002505E0CF
:104190001DF8050004F8010B681CC5B2022DF7DB01
:1041A000202004F8010B714908796946FEF7D7FA17
:1041B000002505E01DF8050004F8010B681CC5B2D8
:1041C000022DF7DB3A2004F8010B6849487969466B
:1041D000FEF7C5FA002505E01DF8050004F8010BFF
:1041E000681CC5B2022DF7DB3A2004F8010B5F49C9
:1041F00088796946FEF7B3FA002505E01DF8050049
:1042000004F8010B681CC5B2022DF7DBABE006EB2E
:104210008601584A02EB8101C8786946FEF79FFA89
:10422000002505E01DF8050004F8010B681CC5B267
:10423000022DF7DB2F2004F8010B06EB86014D4A17
:1042400002EB810108796946FEF789FA002505E04D
:104250001DF8050004F8010B681CC5B2022DF7DB40
:10426000202004F8010B06EB8601424A02EB810193
:1042700048796946FEF773FA002505E01DF8050048
:1042800004F8010B681CC5B2022DF7DB3A2004F8D4
:10429000010B06EB8601374A02EB810188796946FA
:1042A000FEF75DFA002505E01DF8050004F8010B96
:1042B000681CC5B2022DF7DB55E006EB86012D4ADE
:1042C00002EB8101C87A6946FEF749FA002505E04C
:1042D0001DF8050004F8010B681CC5B2022DF7DBC0
:1042E0002F2004F8010B06EB8601224A02EB810124
:1042F000087B6946FEF733FA002505E01DF8050046
:1043000004F8010B681CC5B2022DF7DB202004F86D
:10431000010B06EB8601174A02EB8101487B6946D7
:10432000FEF71DFA002505E01DF8050004F8010B55
:10433000681CC5B2022DF7DB3A2004F8010B06EB2E
:1043400086010C4A02EB8101887B6946FEF707FA79
:10435000002505E01DF8050004F8010B681CC5B236
:10436000022DF7DB00BF00BFF8BD000013060020E0
:10437000000C0140480D00204FF0E021096921F0B8
:1043800004014FF0E0221161C21700EB5272C2F338
:10439000C702234B1A701946097801EB4102C2EBA0
:1043A000C1114FF6FF7202EAC1011E4A1180704727
:1043B00001461C4A12884A434FF0E0235A6100220A
:1043C0009A6101221A6100BF4FF0E022106900F0EB
:1043D00001021AB100F48032002AF5D000224FF019
:1043E000E0231A619A61704701460D4A12784A43E8
:1043F0004FF0E0235A6100229A6101221A6100BF46
:104400004FF0E022106900F001021AB100F480328E
:10441000002AF5D000224FF0E0231A619A6170471C
:104420002206002024060020FA480088401CF94992
:104430000880704770B504460E4626B12021F64824
:10444000FCF7B5FA03E02021F348FCF7B2FA0025A7
:1044500019E04FF40041F148FCF7ABFA04F080009A
:1044600020B10821EC48FCF7A2FA03E00821EA4851
:10447000FCF79FFA4FF40041E848FCF798FA600611
:10448000040E681CC5B2082DE3DB2021E248FCF7CE
:104490008EFA70BD07E040F2375100BF0A00A1F16B
:1044A0000101FBD1401E0028F5D17047014605E00F
:1044B000002001E0421CD0B20A28FBDB0A00A1F177
:1044C0000101F5D1704710B5044603E04FF47A704E
:1044D000FFF7ECFF2000A4F10104F7D110BD08B5EF
:1044E00001212020FCF772FC01214020FCF76EFC2A
:1044F00001210846FCF76AFC0121C948FCF77BFA58
:104500000121C848FCF777FA0720ADF80000102019
:104510008DF8030003208DF802006946C248FCF7BD
:1045200099F90721C048FCF742FA7820ADF800005D
:104530006946BE48FCF78EF97821BC48FCF737FA8B
:1045400008BD70B5044608252021B348FCF72FFAB2
:1045500000BF4FF40041B148FCF72BFA00BF18E050
:1045600004F0800020B10821AB48FCF720FA03E0FA
:104570000821A948FCF71DFA4FF40041A748FCF7B1
:1045800016FA00BF4FF40041A448FCF712FA600687
:10459000040E2800A5F10101CDB2E1D170BD70B5C6
:1045A0000446082520219C48FCF703FA29039B4870
:1045B000FCF7FFF900BF18E004F0800020B10821EB
:1045C0009548FCF7F4F903E008219348FCF7F1F96A
:1045D0004FF400419148FCF7EAF900BF4FF4004165
:1045E0008E48FCF7E6F96006040E2800A5F10101EB
:1045F000CDB2E1D170BD70B50646002415E004F1DE
:10460000B001C8B2FFF7CBFF0220FFF7C8FF1020B0
:10461000FFF7C5FF002504E03046FFF792FF681C56
:10462000C5B2802DF8DB601CC4B2082CE7DB70BD7E
:1046300008B5FFF754FF01210820FCF7C7FB38201D
:10464000ADF8000003208DF8020010208DF8030063
:1046500069467148FCF7FEF801210420FCF7B6FB1F
:104660004FF40040ADF8000003208DF80200102048
:104670008DF8030069466948FCF7ECF84FF40041F7
:104680006648FCF794F910216348FCF792F9322050
:10469000FFF719FF10216048FCF789F90021AE20CF
:1046A000FFF7C8FE0021D520FFF7C4FE00218020BF
:1046B000FFF7C0FE0021A820FFF7BCFE00213F202D
:1046C000FFF7B8FE0021D320FFF7B4FE0021084613
:1046D000FFF7B0FE00214020FFF7ACFE00218D2047
:1046E000FFF7A8FE00211420FFF7A4FE00212020E0
:1046F000FFF7A0FE00210220FFF79CFE0021A12071
:10470000FFF798FE0021C820FFF794FE0021DA2071
:10471000FFF790FE00211220FFF78CFE0021812080
:10472000FFF788FE0021EF20FFF784FE0021D9204B
:10473000FFF780FE0021F120FFF77CFE0021DB2047
:10474000FFF778FE00214020FFF774FE0021A4202F
:10475000FFF770FE0021A620FFF76CFE0021AF20BE
:10476000FFF768FE0020FFF746FF08BD70B504465E
:104770000D4605F1B001C8B2FFF711FF102141EA63
:104780001410FFF70CFF04F00F00FFF708FF70BDD7
:1047900070B5002415E004F1B001C8B2FFF7FFFEC8
:1047A0000120FFF7FCFE1020FFF7F9FE002504E0D2
:1047B0000020FFF7C6FE681CC5B2802DF8DB601C28
:1047C000C4B2082CE7DB70BD10B504462046FFF7E5
:1047D000E6FE10BD70B504462546E11704EB1171E5
:1047E0000911A4EB0111C8B2FFF7D9FE2546E11764
:1047F00004EB117109111031C8B2FFF7D0FE70BD82
:1048000010B504462020FFF7CAFE2046FFF7C7FE7A
:1048100010BD0000260A0020000C014000080140E5
:104820000004300000023000001401400018014074
:1048300070B505460C462120FFF7B1FE2846FFF76C
:10484000AEFE2046FFF7ABFE70BD70B505460C46C8
:104850002220FFF7A4FE2846FFF7A1FE2046FFF71F
:104860009EFE70BD10B5044644F04000FFF797FE71
:1048700010BD10B504468120FFF791FE2046FFF7DA
:104880008EFE10BD10B504468D20FFF788FE44F063
:104890001000FFF784FE10BD10B5044644F0A000E0
:1048A000FFF77DFE10BD10B5044644F0A400FFF7ED
:1048B00076FE10BD10B5044644F0A600FFF76FFE6B
:1048C00010BD10B50446A820FFF769FE2046FFF78B
:1048D00066FE10BD10B5044644F0AE00FFF75FFE63
:1048E00010BD10B5044644F0B000FFF758FE10BDEF
:1048F00010B5044644F0C000FFF751FE10BD10B5DE
:104900000446D320FFF74BFE2046FFF748FE10BDBC
:1049100010B50446D520FFF742FE2046FFF73FFEC4
:1049200010BD10B50446D920FFF739FE2046FFF729
:1049300036FE10BD10B50446DA20FFF730FE44F015
:104940000200FFF72CFE10BD10B50446DB20FFF778
:1049500026FE2046FFF723FE10BD10B5E320FFF72B
:104960001EFE10BD2DE9F0470446884615464FF05F
:1049700000090026002741462046FFF7F7FE1CE00D
:10498000E85D203800F0FF097E2C04DD002408F1EA
:10499000010000F0FF08002609E009EB4901FE4A8A
:1049A00002EB4101885DFFF7CCFD701CC6B2062EFC
:1049B000F3DBA01DC4B2781CC7B2E85D0028DFD1CC
:1049C000BDE8F0872DE9F04706460F4690460025E2
:1049D0000024A14631E018F809002038C5B2782E2D
:1049E00002DD0026781CC7B239463046FFF7BEFE0E
:1049F000002407E004EB0511E84A505CFFF7A1FD35
:104A0000601CC4B2082CF5DB781CC1B23046FFF73D
:104A1000ADFE002408E004EB05110831DF4A505CCC
:104A2000FFF78FFD601CC4B2082CF4DB06F1080010
:104A3000C6B209F1010000F0FF0918F809000028CA
:104A4000C9D1BDE8F0872DE9F04781460F46904671
:104A50000024002601256BE00024012513E0D04846
:104A6000005D18F8061088420BD1CD49601C095C26
:104A7000701C18F80000814203D1C4EBC40045004B
:104A800005E0A01CC4B2C648005D7F28E7DC00BF7B
:104A9000B9F1760F03DD4FF00009781CC7B2394633
:104AA0004846FFF763FE012D1FD039464846FFF701
:104AB0005DFE002406E0BB49485DFFF742FD6D1C2A
:104AC000601CC4B20E2CF6DB781CC1B24846FFF75E
:104AD0004DFE002406E0B349485DFFF732FD6D1C32
:104AE000601CC4B20E2CF6DB1CE0701CC6B239464A
:104AF0004846FFF73BFE002404E00020FFF721FDBD
:104B0000601CC4B2102CF8DB781CC1B24846FFF719
:104B10002DFE002404E00020FFF713FD601CC4B24A
:104B2000102CF8DB09F10E0000F0FF09B01CC6B232
:104B300018F8060000288FD1BDE8F087F8B50646C2
:104B40000F461546002427E0285D7F2814DD285DE8
:104B50008DF80000601C285C8DF8010000208DF8A5
:104B600002006A4639463046FFF76DFF06F10E0037
:104B7000C6B2A01CC4B20FE0285D8DF80000002072
:104B80008DF801006A4639463046FFF71BFF06F1F3
:104B90000800C6B2601CC4B2285D0028D4D1F8BD9C
:104BA000F8B505460C461646E006040E8DF8006082
:104BB00000208DF801006A4629462046FFF7D2FE04
:104BC000F8BDF8B507460E4615460024F006060E59
:104BD00027E0285D7F2814DD285D8DF80000601C2B
:104BE000285C8DF8010000208DF802006A463946E5
:104BF0003046FFF728FF06F10E00C6B2A01CC4B273
:104C00000FE0285D8DF8000000208DF801006A4655
:104C100039463046FFF7D6FE06F10800C6B2601CE2
:104C2000C4B2285D0028D4D1F8BD2DE9FC41074667
:104C30000E46144698460025002000900190F0068C
:104C4000060E42F21070B4FBF0F00A21B0FBF1F254
:104C500001FB12008DF800004FF47A70B4FBF0F005
:104C6000B0FBF1F201FB12008DF801006420B4FBEF
:104C7000F0F0B0FBF1F201FB12008DF802000A2007
:104C8000B4FBF0F0B0FBF1F201FB12008DF8030071
:104C90000A20B4FBF0F100FB11408DF8040000BFC6
:104CA00007E01DF805003030C0B20DF80500681CA3
:104CB000C5B2052DF5DBC8F1050069464218394635
:104CC0003046FFF77FFEBDE8FC812DE9FF5F86B02F
:104CD00014461D464FF0010A0020039004900590F1
:104CE0004FF00109002600BF8346002213462046EC
:104CF000294600F039FD09D285F00040CDE9004099
:104D00002046019900F0F7FC064604E020462946BB
:104D100000F0F1FC0646304600F0CFFC22462B4660
:104D2000CDE9000100F054FC0746884600221E4BE6
:104D30003846414600F04FFCCDE9000100F0FAFC96
:104D4000834607E009EB89004FEA40090AF10100B8
:104D500000F0FF0A0A2096FBF0F090FBF9F0002823
:104D6000F0D142F2107096FBF0F00A2190FBF1F2C4
:104D700001FB1200C0B28DF80C004FF47A7096FB64
:104D8000F0F090FBF1F201FB1200C0B28DF80D00C3
:104D9000642096FBF0F009E0C8590008B35D0008F4
:104DA000F05B00080F5C00080088C34090FBF1F244
:104DB00001FB1200C0B28DF80E000A2096FBF0F045
:104DC00090FBF1F201FB1200C0B28DF80F000A2037
:104DD00096FBF0F100FB1160C0B28DF810002E20A0
:104DE0008DF811004FF47A70BBFBF0F00A21B0FB94
:104DF000F1F201FB12008DF812006420BBFBF0F011
:104E0000B0FBF1F201FB12008DF813000A20BBFB8E
:104E1000F0F0B0FBF1F201FB12008DF814000A2053
:104E2000BBFBF0F100FB11B08DF8150000211498C8
:104E3000801D03AA1154894608E003A810F8090050
:104E4000303003A901F8090009F10109B9F10A0F8D
:104E5000F3DB002213462046294600F085FC08D2E9
:104E60000AF1010000F0FF0A2D20CAF1050103AA92
:104E700050542E208DF8110000211498801D03AA93
:104E80001154CAF1050003A94218DDE90610FFF725
:104E900069FD0AB0BDE8F09F2DE9F04F89B0824668
:104EA000894617469846DDF84CB00120079000204F
:104EB0000490059006900124002500BF00264FEACB
:104EC000C9604FEA10693846414600F014FC0546B7
:104ED000284600F003FC3A464346CDE9000100F0C5
:104EE00077FBCDE902010022F74BDDE9020100F07A
:104EF00072FBCDE9000100F01DFC064606E004EB64
:104F0000840044000798401CC0B207900A20B5FBFB
:104F1000F0F0B0FBF4F00028F1D142F21070B5FBD4
:104F2000F0F00A21B0FBF1F201FB12008DF8100045
:104F30004FF47A70B5FBF0F0B0FBF1F201FB120018
:104F40008DF811006420B5FBF0F0B0FBF1F201FB2D
:104F500012008DF812000A20B5FBF0F0B0FBF1F260
:104F600001FB12008DF813002E208DF815004FF470
:104F70007A70B6FBF0F0B0FBF1F201FB12008DF895
:104F800016006420B6FBF0F0B0FBF1F201FB12005A
:104F90008DF817000A20B6FBF0F0B0FBF1F201FB30
:104FA00012008DF818000A20B6FBF0F100FB11602A
:104FB0008DF8190000210BF1060004AA11540024F9
:104FC00005E004A8005D303004A90855641C0A2CD3
:104FD000F7DB2E208DF8150000210BF1060004AA46
:104FE00011541298C0F1050004A9421851464846D0
:104FF000FFF7E8FC09B0BDE8F08FF8B506460F46AC
:1050000014460020009002250DE00A2094FBF0F1E8
:1050100000FB11403030C0B20DF805000A2094FBAF
:10502000F0F0C4B26D1E002DEFDA6A463946304604
:10503000FFF7C8FCF8BDF8B506460F461446002039
:10504000009002250DE00A2094FBF0F100FB1140D6
:105050003030C0B20DF805000A2094FBF0F0C4B265
:105060006D1E002DEFDA6A4639463046FFF77AFCAE
:10507000F8BD2DE9F04105460F46164600BF05EB89
:1050800045014906080E3946FFF770FB00240AE087
:1050900006F1100101EB41018C4A02EB4101085D70
:1050A000FFF74FFA641C062CF2DBBDE8F0812DE916
:1050B000F04705460E4614460A2094FBF0F100FB2B
:1050C0001140C7B20A2094FBF0F00A2190FBF1F2E4
:1050D00001FB120000F0FF08642094FBF0F000F0E8
:1050E000FF09A91CC8B23A463146FFF7C2FF691C46
:1050F000C8B242463146FFF7BCFF4A463146284611
:10510000FFF7B7FFBDE8F0872DE9F05F05468B4656
:1051100016463446002C00DA64424FF47A7094FB51
:10512000F0F0C7B24FF47A7094FBF0F100FB11403D
:10513000642190FBF1F000F0FF08642094FBF0F193
:1051400000FB11400A2190FBF1F000F0FF090A205A
:1051500094FBF0F100FB114000F0FF0A3A4659467B
:105160002846FFF786FF691CC8B242465946FFF73A
:1051700080FFA91CC8B24A465946FFF77AFFE91CCE
:10518000C8B252465946FFF774FFBDE8F09F2DE9BB
:10519000F05F05460E46144642F21070B4FBF0F084
:1051A000C7B242F21070B4FBF0F100FB11404FF4B3
:1051B0007A71B0FBF1F000F0FF080846B4FBF0F1A3
:1051C00000FB11406421B0FBF1F000F0FF09642006
:1051D000B4FBF0F100FB11400A21B0FBF1FA0A2008
:1051E000B4FBF0F100FB114B3A4631462846FFF77D
:1051F00040FF691CC8B242463146FFF73AFFA91C7E
:10520000C8B24A463146FFF734FFE91CC8B25246DD
:105210003146FFF72EFF291DC8B25A463146FFF727
:1052200028FFBDE8F09F70B505460C46641E05F1E9
:10523000AF01C8B2FFF7B3F9C4F3031101F11000D5
:10524000FFF7ADF904F00F00FFF7A9F970BD2DE9E4
:10525000F041044600270026002500BF13E001218D
:10526000681CFFF7E0FF002609E02078FFF769F9E6
:1052700021780220FDF7DDFF641C701CC6B2802E71
:10528000F3DB681CC5B2082DE9DBBDE8F0812DE930
:10529000F041044600270026002500BF0FE0012151
:1052A000681CFFF7C0FF002605E02078FFF749F9EA
:1052B000641C701CC6B2802EF7DB681CC5B2082DBA
:1052C000EDDBBDE8F08100000088C340C85900084C
:1052D00070B5002411E00121601CFFF7A4FF002538
:1052E00007E0204901EBC501085DFFF72AF9681CBA
:1052F000C5B2802DF5DB601CC4B2082CEBDB70BDA1
:10530000F0B5144600267F2801DC3F2900DDF0BD02
:105310000B46CF1701EB5777FF10C7F10707FAB21B
:10532000CF1701EB5777FF10A1EBC707FDB2C5F10F
:1053300007070123BB40DEB24CB10A4B03EBC003AD
:105340009B5C3343074F07EBC007BB5408E0054B9A
:1053500003EBC0039B5CB343024F07EBC007BB5496
:1053600000BFD4E7371600201FB501210420FBF74A
:105370003AFD4048FBF78EFD4FF47A70ADF8080017
:105380004720ADF804000020ADF80A00ADF8060093
:105390008DF80C0001A93748FBF750FE1E208DF850
:1053A000000001208DF8010000208DF8020001208E
:1053B0008DF803006846FAF7CCFF01212D48FCF771
:1053C0005FFC012211462B48FCF7AFF90121294867
:1053D000FCF790F91FBD1FB50020009001900290CE
:1053E000039001212348FCF74BFC23480178007807
:1053F000401C214A1070022902DD0020114608706D
:105400001E4801780078401C1C4A1070642921DD78
:10541000002011460870FEF755FE19497B20FDF764
:105420009EF96A4600210846FEF78FFE002407E039
:105430001DF8040010B920200DF80400601CC4B24F
:105440000F2CF5DB00208DF80E006A4606211B208C
:10545000FFF788FA0B4801780078401C094A107061
:1054600041F28830814204DD002011460870FFF7C8
:10547000DFF81FBD000800402B0A00202C0A002086
:10548000280A00202D0A00202DE9FE4F804681EADF
:105490000300C00F0C46009021F0004123F00045AE
:1054A000B8EB0200A94105D24046214690461C4671
:1054B0000B46024623F00040104347D0270DC7F3A8
:1054C0000A00C3F30A510290401A019040286BDA97
:1054D000C3F3130040F4801B0098924620B10023D0
:1054E000D2EB030A63EB0B0B01985946C0F1400263
:1054F000504600F04DF906460D4650465946019A71
:1055000000F065F910EB08006141002487EA1152B0
:1055100084EAE7731A4340D0009A62B3019A012AE1
:105520004FEA075215DC001B61EB02014FF000420D
:1055300002EA0752CDE90042001C41F580113246D3
:105540002B4600F063F903B0BDE8F08F40462146DA
:10555000F9E7001B61EB0201001C41F58013001804
:105560005B412018A2F5001747EB030140EAD57014
:10557000B6196D4111E06D084FEA360645EAC0756F
:105580004FEA0752001B61EB0201001C41F580113C
:1055900049084FEA30000019514132462B4603B00A
:1055A000BDE8F04F00F025B900980122400000232B
:1055B000D0EB020263EBE073009821464FEAE074FF
:1055C000B8EB000061EB0401E9E783F000435BE71F
:1055D00081F0004158E72DE9FE4F81EA030404F011
:1055E000004421F0004100944FF0000B23F00043F1
:1055F00050EA01045ED052EA03045BD0C3F30A54BC
:10560000C1F30A552C44A4F2F3340194A0FB0254D4
:10561000C1F3130141F48011C3F3130343F4801366
:1056200001FB024400FB034E840A970A44EA8154BA
:1056300047EA8357A4FB076802958D0A05FB078597
:105640004FEA932C04FB0C542705029D4FEA0658A1
:1056500047EA1637B5EB08056EEB070C870E920E7E
:1056600047EA811742EA8312A7FB0201B6EB0B015E
:1056700064EB00042B0D43EA0C335E1844EB1C5022
:10568000DA465146E7FB0201C5F313044FEA0B3338
:1056900043EA14534FEA0432019C43EA0603A4F19F
:1056A0000C040294009CCDE900B400F0AFF803B004
:1056B000BDE8F08F00200146F9E70EB5C10F80EA82
:1056C000E0700844CA07002140F233438DE80E0021
:1056D0000A460B4600F09AF803B000BD0EB540F242
:1056E000334102910021CDE900110A460B4600F03A
:1056F0008DF803B000BD70B5C1F30A5201F000454A
:105700000024C1F3130140F2FF3341F480119A42A7
:1057100001DA002070BD40F233439A42A2F23342D4
:1057200003DC524200F043F800E090402C43F1D0FB
:10573000404270BDC1F30A5210B5C1F3130140F2EB
:10574000FF3341F480119A4201DA002010BD40F28B
:1057500033439A42A2F2334203DC524200F027F86C
:1057600010BD904010BD000030B5002904DB4FF0A3
:105770000044404264EB0101002B04DB4FF0004485
:10578000524264EB03038B4208BF824230BD0000EB
:10579000202A04DB203A00FA02F1002070479140F1
:1057A000C2F1200320FA03F3194390407047202AE6
:1057B00004DB203A21FA02F00021704721FA02F3BB
:1057C000D040C2F120029140084319467047202A78
:1057D00006DBCB17203A41FA02F043EAE07306E019
:1057E00041FA02F3D040C2F1200291400843194629
:1057F000704710B5002B08DA401C41F100019218E7
:105800005B411A4301D120F0010010BD2DE9F04D9C
:1058100092469B4611B1B1FA81F202E0B0FA80F2F1
:1058200020329046FFF7B4FF04460F4640EA0A00D4
:1058300041EA0B0153465A46084313D0114653EA36
:10584000010019D0C8F140025046FFF7B0FF0546ED
:105850000E46504659464246FFF79AFF084305D088
:10586000012004E020463946BDE8F08D00200543C4
:1058700046EAE0762C4337430A986305E40AA0EB36
:1058800008000022FD0A44EA47540A3002D50020ED
:105890000146E9E7010510196941DDE908450019EC
:1058A0006941BDE8F04DA4E7064C074D06E0E0680D
:1058B00040F0010394E8070098471034AC42F6D357
:1058C000FAF73AFCA4630008C463000870B58D18A9
:1058D00010F8014B14F0030201D110F8012B231131
:1058E00006D110F8013B03E010F8016B01F8016BE1
:1058F000521EF9D1ABB110F8012B04F00C048A1A36
:105900000C2C03D0A2EB84129B1C08E010F8014B76
:10591000A2EB0422F8E712F8014B01F8014B5B1EE1
:10592000F9D5A942D4D3002070BD02E008C8121FE7
:1059300008C1002AFAD170477047002001E001C178
:10594000121F002AFBD170473A322A221A120A0289
:105950003C342C241C140C043E362E261E160E0637
:10596000403830282018100839312921191109012F
:105970003B332B231B130B033D352D251D150D0527
:105980003F372F271F170F072808301038184020DF
:1059900027072F0F37173F1F26062E0E36163E1EDF
:1059A00025052D0D35153D1D24042C0C34143C1CEF
:1059B00023032B0B33133B1B22022A0A32123A1AFF
:1059C00021012909311139190000000000000000EF
:1059D000002F000000000700070000147F147F1450
:1059E00000242A7F2A1200626408132300364955D6
:1059F000225000000503000000001C2241000000AE
:105A000041221C000014083E08140008083E080843
:105A1000000000A060000808080808080000606096
:105A20000000002010080402003E5149453E0000DD
:105A3000427F4000004261514946002141454B31BF
:105A4000001814127F10002745454539003C4A498B
:105A500049300001710905030036494949360006FD
:105A60004949291E00003636000000005636000065
:105A7000081C2A4908080014141414140808492A98
:105A80001C0800020151090600324959513E007CB0
:105A90001211127C007F49494936003E41414122A2
:105AA000007F4141221C007F49494941007F09098B
:105AB0000901003E4149497A007F0808087F00003B
:105AC000417F4100002040413F01007F08142241F6
:105AD000007F40404040007F020C027F007F0408AE
